{
  "contractName": "GlassKey",
  "abi": [
    {
      "inputs": [
        {
          "internalType": "string",
          "name": "customBaseURI_",
          "type": "string"
        }
      ],
      "stateMutability": "nonpayable",
      "type": "constructor"
    },
    {
      "anonymous": false,
      "inputs": [
        {
          "indexed": true,
          "internalType": "address",
          "name": "owner",
          "type": "address"
        },
        {
          "indexed": true,
          "internalType": "address",
          "name": "approved",
          "type": "address"
        },
        {
          "indexed": true,
          "internalType": "uint256",
          "name": "tokenId",
          "type": "uint256"
        }
      ],
      "name": "Approval",
      "type": "event"
    },
    {
      "anonymous": false,
      "inputs": [
        {
          "indexed": true,
          "internalType": "address",
          "name": "owner",
          "type": "address"
        },
        {
          "indexed": true,
          "internalType": "address",
          "name": "operator",
          "type": "address"
        },
        {
          "indexed": false,
          "internalType": "bool",
          "name": "approved",
          "type": "bool"
        }
      ],
      "name": "ApprovalForAll",
      "type": "event"
    },
    {
      "anonymous": false,
      "inputs": [
        {
          "indexed": true,
          "internalType": "address",
          "name": "previousOwner",
          "type": "address"
        },
        {
          "indexed": true,
          "internalType": "address",
          "name": "newOwner",
          "type": "address"
        }
      ],
      "name": "OwnershipTransferred",
      "type": "event"
    },
    {
      "anonymous": false,
      "inputs": [
        {
          "indexed": true,
          "internalType": "address",
          "name": "from",
          "type": "address"
        },
        {
          "indexed": true,
          "internalType": "address",
          "name": "to",
          "type": "address"
        },
        {
          "indexed": true,
          "internalType": "uint256",
          "name": "tokenId",
          "type": "uint256"
        }
      ],
      "name": "Transfer",
      "type": "event"
    },
    {
      "inputs": [],
      "name": "_maxSupply",
      "outputs": [
        {
          "internalType": "uint256",
          "name": "",
          "type": "uint256"
        }
      ],
      "stateMutability": "view",
      "type": "function",
      "constant": true
    },
    {
      "inputs": [
        {
          "internalType": "address",
          "name": "to",
          "type": "address"
        },
        {
          "internalType": "uint256",
          "name": "tokenId",
          "type": "uint256"
        }
      ],
      "name": "approve",
      "outputs": [],
      "stateMutability": "nonpayable",
      "type": "function"
    },
    {
      "inputs": [
        {
          "internalType": "uint256",
          "name": "",
          "type": "uint256"
        }
      ],
      "name": "attributes",
      "outputs": [
        {
          "internalType": "uint8",
          "name": "_type",
          "type": "uint8"
        }
      ],
      "stateMutability": "view",
      "type": "function",
      "constant": true
    },
    {
      "inputs": [
        {
          "internalType": "address",
          "name": "owner",
          "type": "address"
        }
      ],
      "name": "balanceOf",
      "outputs": [
        {
          "internalType": "uint256",
          "name": "",
          "type": "uint256"
        }
      ],
      "stateMutability": "view",
      "type": "function",
      "constant": true
    },
    {
      "inputs": [
        {
          "internalType": "uint256",
          "name": "tokenId",
          "type": "uint256"
        }
      ],
      "name": "getApproved",
      "outputs": [
        {
          "internalType": "address",
          "name": "",
          "type": "address"
        }
      ],
      "stateMutability": "view",
      "type": "function",
      "constant": true
    },
    {
      "inputs": [
        {
          "internalType": "address",
          "name": "owner",
          "type": "address"
        },
        {
          "internalType": "address",
          "name": "operator",
          "type": "address"
        }
      ],
      "name": "isApprovedForAll",
      "outputs": [
        {
          "internalType": "bool",
          "name": "",
          "type": "bool"
        }
      ],
      "stateMutability": "view",
      "type": "function",
      "constant": true
    },
    {
      "inputs": [],
      "name": "name",
      "outputs": [
        {
          "internalType": "string",
          "name": "",
          "type": "string"
        }
      ],
      "stateMutability": "view",
      "type": "function",
      "constant": true
    },
    {
      "inputs": [],
      "name": "owner",
      "outputs": [
        {
          "internalType": "address",
          "name": "",
          "type": "address"
        }
      ],
      "stateMutability": "view",
      "type": "function",
      "constant": true
    },
    {
      "inputs": [
        {
          "internalType": "uint256",
          "name": "tokenId",
          "type": "uint256"
        }
      ],
      "name": "ownerOf",
      "outputs": [
        {
          "internalType": "address",
          "name": "",
          "type": "address"
        }
      ],
      "stateMutability": "view",
      "type": "function",
      "constant": true
    },
    {
      "inputs": [],
      "name": "renounceOwnership",
      "outputs": [],
      "stateMutability": "nonpayable",
      "type": "function"
    },
    {
      "inputs": [
        {
          "internalType": "address",
          "name": "from",
          "type": "address"
        },
        {
          "internalType": "address",
          "name": "to",
          "type": "address"
        },
        {
          "internalType": "uint256",
          "name": "tokenId",
          "type": "uint256"
        }
      ],
      "name": "safeTransferFrom",
      "outputs": [],
      "stateMutability": "nonpayable",
      "type": "function"
    },
    {
      "inputs": [
        {
          "internalType": "address",
          "name": "from",
          "type": "address"
        },
        {
          "internalType": "address",
          "name": "to",
          "type": "address"
        },
        {
          "internalType": "uint256",
          "name": "tokenId",
          "type": "uint256"
        },
        {
          "internalType": "bytes",
          "name": "_data",
          "type": "bytes"
        }
      ],
      "name": "safeTransferFrom",
      "outputs": [],
      "stateMutability": "nonpayable",
      "type": "function"
    },
    {
      "inputs": [
        {
          "internalType": "address",
          "name": "operator",
          "type": "address"
        },
        {
          "internalType": "bool",
          "name": "approved",
          "type": "bool"
        }
      ],
      "name": "setApprovalForAll",
      "outputs": [],
      "stateMutability": "nonpayable",
      "type": "function"
    },
    {
      "inputs": [
        {
          "internalType": "bytes4",
          "name": "interfaceId",
          "type": "bytes4"
        }
      ],
      "name": "supportsInterface",
      "outputs": [
        {
          "internalType": "bool",
          "name": "",
          "type": "bool"
        }
      ],
      "stateMutability": "view",
      "type": "function",
      "constant": true
    },
    {
      "inputs": [],
      "name": "symbol",
      "outputs": [
        {
          "internalType": "string",
          "name": "",
          "type": "string"
        }
      ],
      "stateMutability": "view",
      "type": "function",
      "constant": true
    },
    {
      "inputs": [
        {
          "internalType": "uint256",
          "name": "tokenId",
          "type": "uint256"
        }
      ],
      "name": "tokenURI",
      "outputs": [
        {
          "internalType": "string",
          "name": "",
          "type": "string"
        }
      ],
      "stateMutability": "view",
      "type": "function",
      "constant": true
    },
    {
      "inputs": [
        {
          "internalType": "address",
          "name": "from",
          "type": "address"
        },
        {
          "internalType": "address",
          "name": "to",
          "type": "address"
        },
        {
          "internalType": "uint256",
          "name": "tokenId",
          "type": "uint256"
        }
      ],
      "name": "transferFrom",
      "outputs": [],
      "stateMutability": "nonpayable",
      "type": "function"
    },
    {
      "inputs": [
        {
          "internalType": "address",
          "name": "newOwner",
          "type": "address"
        }
      ],
      "name": "transferOwnership",
      "outputs": [],
      "stateMutability": "nonpayable",
      "type": "function"
    },
    {
      "inputs": [
        {
          "internalType": "string",
          "name": "newBaseURI_",
          "type": "string"
        }
      ],
      "name": "setBaseURI",
      "outputs": [],
      "stateMutability": "nonpayable",
      "type": "function"
    },
    {
      "inputs": [],
      "name": "currentSupply",
      "outputs": [
        {
          "internalType": "uint256",
          "name": "",
          "type": "uint256"
        }
      ],
      "stateMutability": "view",
      "type": "function",
      "constant": true
    },
    {
      "inputs": [
        {
          "internalType": "uint256",
          "name": "quantity",
          "type": "uint256"
        }
      ],
      "name": "purchase",
      "outputs": [],
      "stateMutability": "payable",
      "type": "function",
      "payable": true
    },
    {
      "inputs": [
        {
          "internalType": "uint256",
          "name": "id",
          "type": "uint256"
        }
      ],
      "name": "getType",
      "outputs": [
        {
          "internalType": "uint8",
          "name": "",
          "type": "uint8"
        }
      ],
      "stateMutability": "view",
      "type": "function",
      "constant": true
    }
  ],
  "bytecode": "0x60806040523480156200001157600080fd5b5060405162001fa538038062001fa58339810160408190526200003491620001f3565b6040805180820182526008815267476c6173734b657960c01b6020808301918252835180850190945260038452624b455960e81b9084015281519192916200007f9160009162000137565b5080516200009590600190602084019062000137565b505050620000b2620000ac620000e160201b60201c565b620000e5565b8051620000c790600990602084019062000137565b505067016345785d8a0000600a55610100600b556200030c565b3390565b600780546001600160a01b038381166001600160a01b0319831681179093556040519116919082907f8be0079c531659141344cd1fd0a4f28419497f9722a3daafe3b4186f6b6457e090600090a35050565b8280546200014590620002cf565b90600052602060002090601f016020900481019282620001695760008555620001b4565b82601f106200018457805160ff1916838001178555620001b4565b82800160010185558215620001b4579182015b82811115620001b457825182559160200191906001019062000197565b50620001c2929150620001c6565b5090565b5b80821115620001c25760008155600101620001c7565b634e487b7160e01b600052604160045260246000fd5b600060208083850312156200020757600080fd5b82516001600160401b03808211156200021f57600080fd5b818501915085601f8301126200023457600080fd5b815181811115620002495762000249620001dd565b604051601f8201601f19908116603f01168101908382118183101715620002745762000274620001dd565b8160405282815288868487010111156200028d57600080fd5b600093505b82841015620002b1578484018601518185018701529285019262000292565b82841115620002c35760008684830101525b98975050505050505050565b600181811c90821680620002e457607f821691505b602082108114156200030657634e487b7160e01b600052602260045260246000fd5b50919050565b611c89806200031c6000396000f3fe6080604052600436106101355760003560e01c8063715018a6116100ab578063b88d4fde1161006f578063b88d4fde1461036e578063c87b56dd1461038e578063d05dcc6a146103ae578063e985e9c5146103de578063efef39a114610427578063f2fde38b1461043a57600080fd5b8063715018a6146102f1578063771282f6146103065780638da5cb5b1461031b57806395d89b4114610339578063a22cb4651461034e57600080fd5b806323b872dd116100fd57806323b872dd1461020f5780634036ab781461022f57806342842e0e1461027157806355f804b3146102915780636352211e146102b157806370a08231146102d157600080fd5b806301ffc9a71461013a57806306fdde031461016f578063081812fc14610191578063095ea7b3146101c957806322f4596f146101eb575b600080fd5b34801561014657600080fd5b5061015a6101553660046116e6565b61045a565b60405190151581526020015b60405180910390f35b34801561017b57600080fd5b506101846104ac565b604051610166919061175b565b34801561019d57600080fd5b506101b16101ac36600461176e565b61053e565b6040516001600160a01b039091168152602001610166565b3480156101d557600080fd5b506101e96101e43660046117a3565b6105d8565b005b3480156101f757600080fd5b50610201600b5481565b604051908152602001610166565b34801561021b57600080fd5b506101e961022a3660046117cd565b6106ee565b34801561023b57600080fd5b5061025f61024a36600461176e565b6000908152600c602052604090205460ff1690565b60405160ff9091168152602001610166565b34801561027d57600080fd5b506101e961028c3660046117cd565b61071f565b34801561029d57600080fd5b506101e96102ac366004611895565b61073a565b3480156102bd57600080fd5b506101b16102cc36600461176e565b61077b565b3480156102dd57600080fd5b506102016102ec3660046118de565b6107f2565b3480156102fd57600080fd5b506101e9610879565b34801561031257600080fd5b506102016108af565b34801561032757600080fd5b506007546001600160a01b03166101b1565b34801561034557600080fd5b506101846108bf565b34801561035a57600080fd5b506101e96103693660046118f9565b6108ce565b34801561037a57600080fd5b506101e9610389366004611935565b6108d9565b34801561039a57600080fd5b506101846103a936600461176e565b610911565b3480156103ba57600080fd5b5061025f6103c936600461176e565b600c6020526000908152604090205460ff1681565b3480156103ea57600080fd5b5061015a6103f93660046119b1565b6001600160a01b03918216600090815260056020908152604080832093909416825291909152205460ff1690565b6101e961043536600461176e565b610a8b565b34801561044657600080fd5b506101e96104553660046118de565b610c7a565b60006001600160e01b031982166380ac58cd60e01b148061048b57506001600160e01b03198216635b5e139f60e01b145b806104a657506301ffc9a760e01b6001600160e01b03198316145b92915050565b6060600080546104bb906119e4565b80601f01602080910402602001604051908101604052809291908181526020018280546104e7906119e4565b80156105345780601f1061050957610100808354040283529160200191610534565b820191906000526020600020905b81548152906001019060200180831161051757829003601f168201915b5050505050905090565b6000818152600260205260408120546001600160a01b03166105bc5760405162461bcd60e51b815260206004820152602c60248201527f4552433732313a20617070726f76656420717565727920666f72206e6f6e657860448201526b34b9ba32b73a103a37b5b2b760a11b60648201526084015b60405180910390fd5b506000908152600460205260409020546001600160a01b031690565b60006105e38261077b565b9050806001600160a01b0316836001600160a01b031614156106515760405162461bcd60e51b815260206004820152602160248201527f4552433732313a20617070726f76616c20746f2063757272656e74206f776e656044820152603960f91b60648201526084016105b3565b336001600160a01b038216148061066d575061066d81336103f9565b6106df5760405162461bcd60e51b815260206004820152603860248201527f4552433732313a20617070726f76652063616c6c6572206973206e6f74206f7760448201527f6e6572206e6f7220617070726f76656420666f7220616c6c000000000000000060648201526084016105b3565b6106e98383610d15565b505050565b6106f83382610d83565b6107145760405162461bcd60e51b81526004016105b390611a1f565b6106e9838383610e76565b6106e9838383604051806020016040528060008152506108d9565b6007546001600160a01b031633146107645760405162461bcd60e51b81526004016105b390611a70565b8051610777906009906020840190611637565b5050565b6000818152600260205260408120546001600160a01b0316806104a65760405162461bcd60e51b815260206004820152602960248201527f4552433732313a206f776e657220717565727920666f72206e6f6e657869737460448201526832b73a103a37b5b2b760b91b60648201526084016105b3565b60006001600160a01b03821661085d5760405162461bcd60e51b815260206004820152602a60248201527f4552433732313a2062616c616e636520717565727920666f7220746865207a65604482015269726f206164647265737360b01b60648201526084016105b3565b506001600160a01b031660009081526003602052604090205490565b6007546001600160a01b031633146108a35760405162461bcd60e51b81526004016105b390611a70565b6108ad6000611016565b565b60006108ba60085490565b905090565b6060600180546104bb906119e4565b610777338383611068565b6108e33383610d83565b6108ff5760405162461bcd60e51b81526004016105b390611a1f565b61090b84848484611137565b50505050565b6000818152600260205260409020546060906001600160a01b03166109925760405162461bcd60e51b815260206004820152603160248201527f45524337323155524953746f726167653a2055524920717565727920666f72206044820152703737b732bc34b9ba32b73a103a37b5b2b760791b60648201526084016105b3565b600082815260066020526040812080546109ab906119e4565b80601f01602080910402602001604051908101604052809291908181526020018280546109d7906119e4565b8015610a245780601f106109f957610100808354040283529160200191610a24565b820191906000526020600020905b815481529060010190602001808311610a0757829003601f168201915b505050505090506000610a3561116a565b9050805160001415610a48575092915050565b815115610a7a578082604051602001610a62929190611aa5565b60405160208183030381529060405292505050919050565b610a8384611179565b949350505050565b60003411610adb5760405162461bcd60e51b815260206004820152601760248201527f4272756820776861742061726520796f7520646f696e6700000000000000000060448201526064016105b3565b610ae4336107f2565b610b6357610af3600182611aea565b600a54610b009190611b01565b6002600a54610b0f9190611b36565b610b199190611b4a565b341015610b5e5760405162461bcd60e51b8152602060048201526013602482015272139bdd08195b9bdd59da08115512081cd95b9d606a1b60448201526064016105b3565b610bb6565b80600a54610b719190611b01565b341015610bb65760405162461bcd60e51b8152602060048201526013602482015272139bdd08195b9bdd59da08115512081cd95b9d606a1b60448201526064016105b3565b600a81610bc2336107f2565b610bcc9190611b4a565b1115610c1a5760405162461bcd60e51b815260206004820152601860248201527f43616e6e6f74206d696e74206d6f7265207468616e203130000000000000000060448201526064016105b3565b6007546040516001600160a01b03909116903480156108fc02916000818181858888f19350505050158015610c53573d6000803e3d6000fd5b5060005b8181101561077757610c6833611254565b80610c7281611b62565b915050610c57565b6007546001600160a01b03163314610ca45760405162461bcd60e51b81526004016105b390611a70565b6001600160a01b038116610d095760405162461bcd60e51b815260206004820152602660248201527f4f776e61626c653a206e6577206f776e657220697320746865207a65726f206160448201526564647265737360d01b60648201526084016105b3565b610d1281611016565b50565b600081815260046020526040902080546001600160a01b0319166001600160a01b0384169081179091558190610d4a8261077b565b6001600160a01b03167f8c5be1e5ebec7d5bd14f71427d1e84f3dd0314c0f7b2291e5b200ac8c7c3b92560405160405180910390a45050565b6000818152600260205260408120546001600160a01b0316610dfc5760405162461bcd60e51b815260206004820152602c60248201527f4552433732313a206f70657261746f7220717565727920666f72206e6f6e657860448201526b34b9ba32b73a103a37b5b2b760a11b60648201526084016105b3565b6000610e078361077b565b9050806001600160a01b0316846001600160a01b03161480610e425750836001600160a01b0316610e378461053e565b6001600160a01b0316145b80610a8357506001600160a01b0380821660009081526005602090815260408083209388168352929052205460ff16610a83565b826001600160a01b0316610e898261077b565b6001600160a01b031614610ef15760405162461bcd60e51b815260206004820152602960248201527f4552433732313a207472616e73666572206f6620746f6b656e2074686174206960448201526839903737ba1037bbb760b91b60648201526084016105b3565b6001600160a01b038216610f535760405162461bcd60e51b8152602060048201526024808201527f4552433732313a207472616e7366657220746f20746865207a65726f206164646044820152637265737360e01b60648201526084016105b3565b610f5e600082610d15565b6001600160a01b0383166000908152600360205260408120805460019290610f87908490611aea565b90915550506001600160a01b0382166000908152600360205260408120805460019290610fb5908490611b4a565b909155505060008181526002602052604080822080546001600160a01b0319166001600160a01b0386811691821790925591518493918716917fddf252ad1be2c89b69c2b068fc378daa952ba7f163c4a11628f55a4df523b3ef91a4505050565b600780546001600160a01b038381166001600160a01b0319831681179093556040519116919082907f8be0079c531659141344cd1fd0a4f28419497f9722a3daafe3b4186f6b6457e090600090a35050565b816001600160a01b0316836001600160a01b031614156110ca5760405162461bcd60e51b815260206004820152601960248201527f4552433732313a20617070726f766520746f2063616c6c65720000000000000060448201526064016105b3565b6001600160a01b03838116600081815260056020908152604080832094871680845294825291829020805460ff191686151590811790915591519182527f17307eab39ab6107e8899845ad3d59bd9653f200f220920489ca2b5937696c31910160405180910390a3505050565b611142848484610e76565b61114e848484846112f9565b61090b5760405162461bcd60e51b81526004016105b390611b7d565b6060600980546104bb906119e4565b6000818152600260205260409020546060906001600160a01b03166111f85760405162461bcd60e51b815260206004820152602f60248201527f4552433732314d657461646174613a2055524920717565727920666f72206e6f60448201526e3732bc34b9ba32b73a103a37b5b2b760891b60648201526084016105b3565b600061120261116a565b90506000815111611222576040518060200160405280600081525061124d565b8061122c846113f7565b60405160200161123d929190611aa5565b6040516020818303038152906040525b9392505050565b600b5460085411156112a85760405162461bcd60e51b815260206004820152601860248201527f323536206b65797320616c72656164792063726561746564000000000000000060448201526064016105b3565b6112b6600880546001019055565b60006112c160085490565b90506112cd82826114f5565b60408051602080820183526000808352938452600c905291209051815460ff191660ff90911617905550565b60006001600160a01b0384163b156113ec57604051630a85bd0160e11b81526001600160a01b0385169063150b7a029061133d903390899088908890600401611bcf565b6020604051808303816000875af1925050508015611378575060408051601f3d908101601f1916820190925261137591810190611c0c565b60015b6113d2573d8080156113a6576040519150601f19603f3d011682016040523d82523d6000602084013e6113ab565b606091505b5080516113ca5760405162461bcd60e51b81526004016105b390611b7d565b805181602001fd5b6001600160e01b031916630a85bd0160e11b149050610a83565b506001949350505050565b60608161141b5750506040805180820190915260018152600360fc1b602082015290565b8160005b8115611445578061142f81611b62565b915061143e9050600a83611b36565b915061141f565b60008167ffffffffffffffff81111561146057611460611809565b6040519080825280601f01601f19166020018201604052801561148a576020820181803683370190505b5090505b8415610a835761149f600183611aea565b91506114ac600a86611c29565b6114b7906030611b4a565b60f81b8183815181106114cc576114cc611c3d565b60200101906001600160f81b031916908160001a9053506114ee600a86611b36565b945061148e565b6001600160a01b03821661154b5760405162461bcd60e51b815260206004820181905260248201527f4552433732313a206d696e7420746f20746865207a65726f206164647265737360448201526064016105b3565b6000818152600260205260409020546001600160a01b0316156115b05760405162461bcd60e51b815260206004820152601c60248201527f4552433732313a20746f6b656e20616c7265616479206d696e7465640000000060448201526064016105b3565b6001600160a01b03821660009081526003602052604081208054600192906115d9908490611b4a565b909155505060008181526002602052604080822080546001600160a01b0319166001600160a01b03861690811790915590518392907fddf252ad1be2c89b69c2b068fc378daa952ba7f163c4a11628f55a4df523b3ef908290a45050565b828054611643906119e4565b90600052602060002090601f01602090048101928261166557600085556116ab565b82601f1061167e57805160ff19168380011785556116ab565b828001600101855582156116ab579182015b828111156116ab578251825591602001919060010190611690565b506116b79291506116bb565b5090565b5b808211156116b757600081556001016116bc565b6001600160e01b031981168114610d1257600080fd5b6000602082840312156116f857600080fd5b813561124d816116d0565b60005b8381101561171e578181015183820152602001611706565b8381111561090b5750506000910152565b60008151808452611747816020860160208601611703565b601f01601f19169290920160200192915050565b60208152600061124d602083018461172f565b60006020828403121561178057600080fd5b5035919050565b80356001600160a01b038116811461179e57600080fd5b919050565b600080604083850312156117b657600080fd5b6117bf83611787565b946020939093013593505050565b6000806000606084860312156117e257600080fd5b6117eb84611787565b92506117f960208501611787565b9150604084013590509250925092565b634e487b7160e01b600052604160045260246000fd5b600067ffffffffffffffff8084111561183a5761183a611809565b604051601f8501601f19908116603f0116810190828211818310171561186257611862611809565b8160405280935085815286868601111561187b57600080fd5b858560208301376000602087830101525050509392505050565b6000602082840312156118a757600080fd5b813567ffffffffffffffff8111156118be57600080fd5b8201601f810184136118cf57600080fd5b610a838482356020840161181f565b6000602082840312156118f057600080fd5b61124d82611787565b6000806040838503121561190c57600080fd5b61191583611787565b91506020830135801515811461192a57600080fd5b809150509250929050565b6000806000806080858703121561194b57600080fd5b61195485611787565b935061196260208601611787565b925060408501359150606085013567ffffffffffffffff81111561198557600080fd5b8501601f8101871361199657600080fd5b6119a58782356020840161181f565b91505092959194509250565b600080604083850312156119c457600080fd5b6119cd83611787565b91506119db60208401611787565b90509250929050565b600181811c908216806119f857607f821691505b60208210811415611a1957634e487b7160e01b600052602260045260246000fd5b50919050565b60208082526031908201527f4552433732313a207472616e736665722063616c6c6572206973206e6f74206f6040820152701ddb995c881b9bdc88185c1c1c9bdd9959607a1b606082015260800190565b6020808252818101527f4f776e61626c653a2063616c6c6572206973206e6f7420746865206f776e6572604082015260600190565b60008351611ab7818460208801611703565b835190830190611acb818360208801611703565b01949350505050565b634e487b7160e01b600052601160045260246000fd5b600082821015611afc57611afc611ad4565b500390565b6000816000190483118215151615611b1b57611b1b611ad4565b500290565b634e487b7160e01b600052601260045260246000fd5b600082611b4557611b45611b20565b500490565b60008219821115611b5d57611b5d611ad4565b500190565b6000600019821415611b7657611b76611ad4565b5060010190565b60208082526032908201527f4552433732313a207472616e7366657220746f206e6f6e20455243373231526560408201527131b2b4bb32b91034b6b83632b6b2b73a32b960711b606082015260800190565b6001600160a01b0385811682528416602082015260408101839052608060608201819052600090611c029083018461172f565b9695505050505050565b600060208284031215611c1e57600080fd5b815161124d816116d0565b600082611c3857611c38611b20565b500690565b634e487b7160e01b600052603260045260246000fdfea264697066735822122011919447911b14dc59e3f10e895a00286023c961fa00eceee6f4d4471fd6bf6f64736f6c634300080b0033",
  "immutableReferences": {},
  "source": "// SPDX-License-Identifier: MIT\npragma solidity ^0.8.0;\n\nimport \"@openzeppelin/contracts/token/ERC721/extensions/ERC721URIStorage.sol\";\nimport \"@openzeppelin/contracts/utils/Counters.sol\";\nimport \"@openzeppelin/contracts/access/Ownable.sol\";\n\ncontract GlassKey is ERC721URIStorage, Ownable {\n    using Counters for Counters.Counter;\n    Counters.Counter private _tokenIds;\n\n    string private _customBaseURI;\n    uint256 private _price;\n    uint256 public _maxSupply;\n    struct Attr {\n        uint8 _type;\n    }\n    mapping(uint256 => Attr) public attributes;\n\n    constructor(string memory customBaseURI_) ERC721(\"GlassKey\", \"KEY\") {\n        _customBaseURI = customBaseURI_;\n        _price = 0.10 ether;\n        _maxSupply = 256;\n    }\n\n    function setBaseURI(string memory newBaseURI_) public onlyOwner {\n        _customBaseURI = newBaseURI_;\n    }\n\n    function currentSupply() public view returns (uint256) {\n        return _tokenIds.current();\n    }\n\n    function purchase(uint256 quantity) public payable {\n        require (msg.value > 0, \"Bruh what are you doing\");\n        if (balanceOf(msg.sender) == 0) {\n            require(msg.value >= (_price/2) + (_price * (quantity - 1)), \"Not enough ETH sent\");\n        }\n        else{\n            require(msg.value >= (_price * quantity), \"Not enough ETH sent\");\n        }\n        require(balanceOf(msg.sender) + quantity <= 10, \"Cannot mint more than 10\");\n\n        payable(owner()).transfer(msg.value);\n        for (uint i = 0; i < quantity; i++) {\n            mintForPurchase(msg.sender);\n        }\n    }\n\n    function mintForPurchase(address buyer) private {\n        require (_tokenIds.current() <= _maxSupply, \"256 keys already created\");\n        _tokenIds.increment();\n        \n        uint256 newItemId = _tokenIds.current();\n        _mint(buyer, newItemId);\n        attributes[newItemId] = Attr(0);\n    }\n\n    function _baseURI() internal view virtual override returns (string memory) {\n        return _customBaseURI;\n    }\n\n    function getType(uint256 id) public view returns (uint8){\n        return attributes[id]._type;\n    }\n}",
  "sourcePath": "/Users/nathanvasquez/Developer/GlassKeys/contracts/GlassKey.sol",
  "compiler": {
    "name": "solc",
    "version": "0.8.11+commit.d7f03943.Emscripten.clang"
  },
  "schemaVersion": "3.4.4",
  "updatedAt": "2022-02-22T00:00:03.584Z",
  "networkType": "ethereum",
  "devdoc": {
    "kind": "dev",
    "methods": {
      "approve(address,uint256)": {
        "details": "See {IERC721-approve}."
      },
      "balanceOf(address)": {
        "details": "See {IERC721-balanceOf}."
      },
      "getApproved(uint256)": {
        "details": "See {IERC721-getApproved}."
      },
      "isApprovedForAll(address,address)": {
        "details": "See {IERC721-isApprovedForAll}."
      },
      "name()": {
        "details": "See {IERC721Metadata-name}."
      },
      "owner()": {
        "details": "Returns the address of the current owner."
      },
      "ownerOf(uint256)": {
        "details": "See {IERC721-ownerOf}."
      },
      "renounceOwnership()": {
        "details": "Leaves the contract without owner. It will not be possible to call `onlyOwner` functions anymore. Can only be called by the current owner. NOTE: Renouncing ownership will leave the contract without an owner, thereby removing any functionality that is only available to the owner."
      },
      "safeTransferFrom(address,address,uint256)": {
        "details": "See {IERC721-safeTransferFrom}."
      },
      "safeTransferFrom(address,address,uint256,bytes)": {
        "details": "See {IERC721-safeTransferFrom}."
      },
      "setApprovalForAll(address,bool)": {
        "details": "See {IERC721-setApprovalForAll}."
      },
      "supportsInterface(bytes4)": {
        "details": "See {IERC165-supportsInterface}."
      },
      "symbol()": {
        "details": "See {IERC721Metadata-symbol}."
      },
      "tokenURI(uint256)": {
        "details": "See {IERC721Metadata-tokenURI}."
      },
      "transferFrom(address,address,uint256)": {
        "details": "See {IERC721-transferFrom}."
      },
      "transferOwnership(address)": {
        "details": "Transfers ownership of the contract to a new account (`newOwner`). Can only be called by the current owner."
      }
    },
    "version": 1
  },
  "userdoc": {
    "kind": "user",
    "methods": {},
    "version": 1
  }
}